:100000000C942A000C9447000C9447000C94470071
:100010000C9405030C94DC020C9447000C94B3027E
:100020000C9447000C948A020C9461020C943802E0
:100030000C9447000C9447000C9447000C94470024
:100040000C9447000C9447000C9447000C94470014
:100050000C94470011241FBECFE5D8E0DEBFCDBF12
:1000600010E0A0E6B0E0E6EAFCE002C005900D92E8
:10007000A237B107D9F710E0A2E7B0E001C01D92A6
:10008000A638B107E1F70E948D010C9451060C943B
:10009000000082E063E040E00E94D304089582E023
:1000A00063E041E00E94D304089582E063E041E010
:1000B0000E945F0482E063E040E00E94D304089560
:1000C000813049F0813018F08230C1F40DC082E0F7
:1000D00065E040E003C082E065E041E00E94D304B7
:1000E00082E066E040E008C082E065E040E00E9417
:1000F000D30482E066E041E00E94D3040E942D0216
:10010000089582E065E041E00E945F0482E066E0DD
:1001100041E00E945F0482E065E040E00E94D30479
:1001200082E066E040E00E94D3040895AC011092A2
:100130007B0010C0E22FF0E0DA01AE0FBF1FE60F28
:10014000F71F9C918081981711F080E008952F5F30
:1001500020937B0020917B00253060F381E008959F
:10016000809173008F5F80937300089510927B00DD
:100170000BC070E0CB016F577F4F0E94E903809165
:100180007B008F5F80937B0060917B00653088F3FC
:1001900008951092730081E00E94600080917300C6
:1001A0008F30C0F01092730080E00E946000809158
:1001B0007300833070F01092730082E00E94600040
:1001C000809173008F3020F080E00E9460000895DD
:1001D000FFCFFFCFFFCFCF93DF9310927B00C8EC10
:1001E000D0E014C0E82FF0E0E458FF4F90E06081C9
:1001F0000E942E0488EE93E0FE013197F1F70197FB
:10020000D9F780917B008F5F80937B0080917B008A
:10021000853040F3DF91CF910895CF92DF92EF9236
:10022000FF921F93DF93CF9300D000D00F92CDB7F2
:10023000DEB788ECC82ED12C7E010894E11CF11C9D
:100240000E9407068031E1F781E10E9403061092C7
:100250007B0013C00E940706E12FF0E0E458FF4F37
:10026000808388EE93E0F6013197F1F70197D9F793
:1002700080917B008F5F80937B0010917B00153015
:1002800048F30E9407068031E1F781E10E940306EE
:1002900010927B0013C00E94070628EE33E0F6019F
:1002A0003197F1F721503040D1F7F701E10FF11DFF
:1002B000808380917B008F5F80937B0010917B0017
:1002C000153048F38CE790E0B7010E94960081302A
:1002D000A9F480E10E94030681E00E9403060E94C7
:1002E000EB000F900F900F900F900F90CF91DF9138
:1002F0001F91FF90EF90DF90CF9008958CE790E0F2
:10030000B7010E949600882309F09ACF80E10E94ED
:10031000030680E00E94030693CFEF92FF921F93A3
:10032000DF93CF93CDB7DEB762970FB6F894DEBFF9
:100330000FBECDBF8FB780688FBFDE011496EBE68E
:10034000F0E087E001900D928150E1F7CE01049634
:100350000E94CF05DE011B96E3E6F0E088E0019005
:100360000D928150E1F7CE010B960E946B03DE01E6
:100370001196E0E6F0E083E001900D928150E1F704
:10038000CE0101960E94A00580EB90E061E00E9402
:100390005B030E9481000E94550081E00E94600082
:1003A0000E944F000E940D0110E098ECE92EF12C04
:1003B0000E9407068031E9F410927B0013C00E946E
:1003C0000706E12FF0E0E458FF4F808388EE93E0CA
:1003D000F7013197F1F70197D9F780917B008F5F93
:1003E00080937B0010917B00153048F30E94070634
:1003F000182F1B32E9F481E890E06CE770E00E946E
:100400009600813031F485E20E9403060E94C90003
:10041000CFCF80E30E940306809172008F5F8093AC
:100420007200833029F60E944F0010927300FFCFB4
:100430001D3209F0BDCF81E890E06CE770E00E94CA
:100440009600813031F481E30E9403060E940D0181
:10045000AFCF80E30E940306ABCF12BE8FEF8CBFFD
:1004600081E063E041E00E945F048AE683BF089573
:100470001F920F920FB60F9211242F933F934F9319
:100480005F936F937F938F939F93AF93BF93EF93FC
:10049000FF93E0917400F0917500309709F0099591
:1004A000FF91EF91BF91AF919F918F917F916F914C
:1004B0005F914F913F912F910F900FBE0F901F9022
:1004C00018951F920F920FB60F9211242F933F93FE
:1004D0004F935F936F937F938F939F93AF93BF934C
:1004E000EF93FF93E0917400F0917500309709F05D
:1004F0000995FF91EF91BF91AF919F918F917F915E
:100500006F915F914F913F912F910F900FBE0F9080
:100510001F9018951F920F920FB60F9211242F93D0
:100520003F934F935F936F937F938F939F93AF937B
:10053000BF93EF93FF93E0917800F09179003097AB
:1005400009F00995FF91EF91BF91AF919F918F9124
:100550007F916F915F914F913F912F910F900FBEBF
:100560000F901F9018951F920F920FB60F921124A3
:100570002F933F934F935F936F937F938F939F93AB
:10058000AF93BF93EF93FF93E0917800F0917900E0
:10059000309709F00995FF91EF91BF91AF919F912D
:1005A0008F917F916F915F914F913F912F910F901C
:1005B0000FBE0F901F9018951F920F920FB60F92BB
:1005C00011242F933F934F935F936F937F938F9358
:1005D0009F93AF93BF93EF93FF93E0917600F091D9
:1005E0007700309709F00995FF91EF91BF91AF9196
:1005F0009F918F917F916F915F914F913F912F913B
:100600000F900FBE0F901F9018951F920F920FB66C
:100610000F9211242F933F934F935F936F937F9388
:100620008F939F93AF93BF93EF93FF93E0917600E7
:10063000F0917700309709F00995FF91EF91BF9104
:10064000AF919F918F917F916F915F914F913F916A
:100650002F910F900FBE0F901F901895882371F463
:1006600013BE12BE1CBE89B78D7F89BF89B78E7F2E
:1006700089BF10927500109274000895813059F46A
:100680001DBC1CBC1BBC1ABC1FBC1EBC109279003C
:10069000109278000895823069F415BC14BC13BC24
:1006A00089B78F7789BF89B78F7B89BF1092770011
:1006B000109276000895662311F0613029F490932A
:1006C0007500809374000895623021F49093770050
:1006D000809376000895FC0196819F3F09F051C0F8
:1006E0008081882319F5878183BF818182BF8581BD
:1006F000882329F483B7806883BF81E05BC08130A1
:1007000039F483818CBF83B7886A83BF82E052C08B
:10071000833009F05DC083818CBF81E063E041E0FC
:100720000E945F0483B7886683BF0895813009F013
:100730004FC0818192819DBD8CBD2581822F880F04
:10074000880F880F9781892B8EBD222321F488E0A2
:100750008FBD84E02FC0213041F4838194819BBD03
:100760008ABD88E88FBD80E125C0233089F583816B
:100770008CBF83E065E041E00E945F0483E88FBDA9
:10078000089587818F3F21F58081823009F595BDDD
:10079000818184BD8581882329F485B5806885BDE4
:1007A00080E408C0813041F4838183BD85B5886AC7
:1007B00085BD80E889BF0895833051F4838183BD6E
:1007C00083E067E041E00E945F0485B5886685BDEF
:1007D0000895EF92FF921F93CF93DF93EC017B017B
:1007E0000E94AE050E94CC05883089F5CE01880FA5
:1007F000892F881F990B9195182F1E70812F806A61
:100800000E94B7050E94CC05883109F58C2F0E9403
:10081000B7050E94CC058832D1F40E94AE050E9433
:10082000CC058031A1F4812F816A0E94B7050E9416
:10083000CC05803461F40E94C505F70180830E94D5
:10084000CC05883521F40E94B40581E001C080E028
:10085000DF91CF911F91FF90EF9008951F93CF9359
:10086000DF93EC01162F0E94AE050E94CC05883064
:1008700009F5CE0180709770880F892F881F990B1A
:100880009195806A0E94B7050E94CC05883191F449
:100890008C2F0E94B7050E94CC05883259F4812F15
:1008A0000E94B7050E94CC05883221F40E94B4054D
:1008B00081E001C080E0DF91CF911F910895683001
:1008C00008F070C0843008F06DC0813009F18130CB
:1008D00030F08230B1F1833009F064C04BC0413058
:1008E00059F42AB381E090E002C0880F991F6A95FD
:1008F000E2F7282B2ABB08952AB381E090E002C0DA
:10090000880F991F6A95E2F7809582238ABB089524
:10091000413059F427B381E090E002C0880F991F5D
:100920006A95E2F7282B27BB089527B381E090E072
:1009300002C0880F991F6A95E2F78095822387BBD2
:100940000895413059F424B381E090E002C0880F4B
:10095000991F6A95E2F7282B24BB089524B381E000
:1009600090E002C0880F991F6A95E2F78095822374
:1009700084BB0895413059F421B381E090E002C076
:10098000880F991F6A95E2F7282B21BB089521B3A0
:1009900081E090E002C0880F991F6A95E2F7809588
:1009A000822381BB0895683008F070C0843008F05D
:1009B0006DC0813009F1813030F08230B1F1833087
:1009C00009F064C04BC0413059F42BB381E090E092
:1009D00002C0880F991F6A95E2F7282B2BBB089558
:1009E0002BB381E090E002C0880F991F6A95E2F76F
:1009F000809582238BBB0895413059F428B381E060
:100A000090E002C0880F991F6A95E2F7282B28BB57
:100A1000089528B381E090E002C0880F991F6A957D
:100A2000E2F78095822388BB0895413059F425B3BD
:100A300081E090E002C0880F991F6A95E2F7282BA9
:100A400025BB089525B381E090E002C0880F991F6F
:100A50006A95E2F78095822385BB0895413059F469
:100A600022B381E090E002C0880F991F6A95E2F7F7
:100A7000282B22BB089522B381E090E002C0880FAA
:100A8000991F6A95E2F78095822382BB08956830AA
:100A9000D0F48430C0F4813049F0813028F08230C5
:100AA00039F0833081F406C089B305C086B303C032
:100AB00083B301C080B390E002C0959587956A9595
:100AC000E2F78170089580E00895843080F48130E9
:100AD00049F0813028F0823039F0833041F406C08B
:100AE0006ABB089567BB089564BB089561BB089510
:100AF000843080F4813049F0813028F0823039F040
:100B0000833041F406C06BBB089568BB089565BB94
:100B1000089562BB0895843088F4813049F08130B3
:100B200028F0823039F0833049F406C089B3089543
:100B300086B3089583B3089580B3089580E008953F
:100B4000FC0181B18C7F9181892B81B9828180B92F
:100B50008081880F82B984E086BF089584EA86BFC9
:100B600006B607FEFDCF089584E986BF089583B9D0
:100B700084E886BF06B607FEFDCF089584EC86BFE5
:100B800006B607FEFDCF83B1089584E886BF06B69A
:100B900007FEFDCF83B1089581B1887F0895FC01E0
:100BA00082E08BB988E18AB910BC80B5806880BDCD
:100BB00090B580818295807F9F7C892B80BD90B588
:100BC0008181880F880F880F977F892B80BD90B512
:100BD0008281880F997F892B80BD23813481458153
:100BE000568183E0220F331F441F551F8A95D1F78A
:100BF00060E072E18AE790E00E942F0621503040C9
:100C000030BD29B908955D9BFECF8CB908955F9BD7
:100C1000FECF8CB1089520E004C05D9BFECFECB9FF
:100C20002F5FFC01E20FF11DE081EE23B1F7089583
:100C3000DC015F9BFECF8CB18C9390E008C09F5F7E
:100C40005F9BFECF8CB1FD01E90FF11D8083FD019B
:100C5000E90FF11D8081833291F710820895A1E29E
:100C60001A2EAA1BBB1BFD010DC0AA1FBB1FEE1F26
:100C7000FF1FA217B307E407F50720F0A21BB30B71
:100C8000E40BF50B661F771F881F991F1A9469F7ED
:100C900060957095809590959B01AC01BD01CF0149
:060CA0000895F894FFCF57
:100CA600010002010000851E01FF020000038025ED
:020CB60000003C
:00000001FF
