:100000000C942A000C9447000C9447000C94470071
:100010000C94BA020C9491020C9447000C94680260
:100020000C9447000C943F020C9416020C94ED01C2
:100030000C9447000C9447000C9447000C94470024
:100040000C9447000C9447000C9447000C94470014
:100050000C94470011241FBECFE5D8E0DEBFCDBF12
:1000600010E0A0E6B0E0E4E2FEE002C005900D92F0
:10007000A03FB107D9F711E0A0EFB0E001C01D9299
:10008000A130B107E1F70E942C010C9410070C94E9
:1000900000008091F5008F5F8093F5000895109225
:1000A000F5000E94010680E060E040E650E00E941A
:1000B00018068091F5008F30F0F01092F5000E9444
:1000C000010680E060E04FE650E00E941806809153
:1000D000F500833078F01092F5000E94010680E070
:1000E00060E04DE750E00E9418068091F5008F30E7
:1000F00018F4FFCFFFCFFFCF08950E94010680E0E4
:1001000060E04BE850E00E94180680E061E04AE9B8
:1001100050E00E94180608950F931F93CF93DF932A
:10012000EC0181E060E00E94050608EC10E022C0CE
:100130000E94DF04982F8093F1008A30A0F4809110
:10014000F200FE01E80FF11D90838091F200FE01A4
:10015000E80FF11D808190E00E94B6058091F200C9
:100160008F5F8093F20080E29EE4F8013197F1F70F
:100170000197D9F78091F2008530D1F61092F10005
:100180000E94DF048D30E1F7DF91CF911F910F9135
:100190000895CF93DF93C8ECD0E056C00E940106CB
:1001A0008BEA90E00E94A3058CEF90E00E948C0007
:1001B00080E10E947D060E9481068131E1F7109264
:1001C000F30012C0F0E0E450FF4F80810E947D06F2
:1001D00088EE93E0FE013197F1F70197D9F780910E
:1001E000F3008F5F8093F300E091F300E53050F36C
:1001F0000E94010680E060E04CEB50E00E9418068F
:100200008CEF90E00E948C0080E10E947D060E94AD
:1002100081068131E1F71092F30012C0F0E0E45062
:10022000FF4F80810E947D0688EE93E0FE013197AA
:10023000F1F70197D9F78091F3008F5F8093F30076
:10024000E091F300E53050F38091F000882309F449
:10025000A5CFDF91CF9108950F931F93DF93CF9395
:10026000CDB7DEB72F970FB6F894DEBF0FBECDBF68
:100270008FB780688FBFDE011196E9EEF0E087E06E
:1002800001900D928150E1F7CE0101960E9449063E
:10029000DE011896E1EEF0E088E001900D928150C9
:1002A000E1F7CE0108960E94200389E490E061E026
:1002B0000E9410030E9423060E94C9000E947D0034
:1002C0001092F10008EC10E00E94DF048093F1002E
:1002D0008B3209F03EC00E9401068CEC90E00E9437
:1002E000A3058CEF90E00E948C0080E10E947D06C7
:1002F0001092F30012C0F0E0E450FF4F80810E94A2
:100300007D0688EE93E0F8013197F1F70197D9F770
:100310008091F3008F5F8093F300E091F300E5306C
:1003200050F30E948106823119F40E944F0052C09E
:10033000882309F04FC00E94010681ED90E00E94E1
:10034000A30588E893E1F8013197F1F70197D9F710
:1003500041C08D3209F0B8CF0E9401068BEA90E0CF
:100360000E94A3058CEF90E00E948C0080E10E9427
:100370007D061092F30012C0F0E0E450FF4F808140
:100380000E947D0688EE93E0F8013197F1F701971E
:10039000D9F78091F3008F5F8093F300E091F30031
:1003A000E53050F30E948106823129F40E94C90091
:1003B0000E9401060FC0882369F40E94010681EDA6
:1003C00090E00E94A30588E893E1F8013197F1F7E6
:1003D0000197D9F70E947D0077CF1F920F920FB639
:1003E0000F9211242F933F934F935F936F937F93BB
:1003F0008F939F93AF93BF93EF93FF93E091F6009A
:10040000F091F700309709F00995FF91EF91BF91B6
:10041000AF919F918F917F916F915F914F913F919C
:100420002F910F900FBE0F901F9018951F920F9253
:100430000FB60F9211242F933F934F935F936F93B7
:100440007F938F939F93AF93BF93EF93FF93E0912D
:10045000F600F091F700309709F00995FF91EF91C0
:10046000BF91AF919F918F917F916F915F914F91CC
:100470003F912F910F900FBE0F901F9018951F92D4
:100480000F920FB60F9211242F933F934F935F93C8
:100490006F937F938F939F93AF93BF93EF93FF934C
:1004A000E091FA00F091FB00309709F00995FF9177
:1004B000EF91BF91AF919F918F917F916F915F91DC
:1004C0004F913F912F910F900FBE0F901F90189555
:1004D0001F920F920FB60F9211242F933F934F93B9
:1004E0005F936F937F938F939F93AF93BF93EF939C
:1004F000FF93E091FA00F091FB00309709F0099525
:10050000FF91EF91BF91AF919F918F917F916F91EB
:100510005F914F913F912F910F900FBE0F901F90C1
:1005200018951F920F920FB60F9211242F933F939D
:100530004F935F936F937F938F939F93AF93BF93EB
:10054000EF93FF93E091F800F091F900309709F0F4
:100550000995FF91EF91BF91AF919F918F917F91FD
:100560006F915F914F913F912F910F900FBE0F9020
:100570001F9018951F920F920FB60F9211242F9370
:100580003F934F935F936F937F938F939F93AF931B
:10059000BF93EF93FF93E091F800F091F90030974B
:1005A00009F00995FF91EF91BF91AF919F918F91C4
:1005B0007F916F915F914F913F912F910F900FBE5F
:1005C0000F901F901895882371F413BE12BE1CBEA5
:1005D00089B78D7F89BF89B78E7F89BF1092F70059
:1005E0001092F6000895813059F41DBC1CBC1BBC50
:1005F0001ABC1FBC1EBC1092FB001092FA0008959A
:10060000823069F415BC14BC13BC89B78F7789BFDD
:1006100089B78F7B89BF1092F9001092F800089576
:10062000662311F0613029F49093F7008093F6006F
:100630000895623021F49093F9008093F8000895B2
:10064000FC0196819F3F09F051C08081882319F5F4
:10065000878183BF818182BF8581882329F483B705
:10066000806883BF81E05BC0813039F483818CBFB7
:1006700083B7886A83BF82E052C0833009F05DC0CF
:1006800083818CBF81E063E041E00E949E0383B7D9
:10069000886683BF0895813009F04FC081819281BF
:1006A0009DBD8CBD2581822F880F880F880F978173
:1006B000892B8EBD222321F488E08FBD84E02FC0DA
:1006C000213041F4838194819BBD8ABD88E88FBD30
:1006D00080E125C0233089F583818CBF83E065E00C
:1006E00041E00E949E0383E88FBD089587818F3F7C
:1006F00021F58081823009F595BD818184BD858198
:10070000882329F485B5806885BD80E408C08130E0
:1007100041F4838183BD85B5886A85BD80E889BF42
:100720000895833051F4838183BD83E067E041E025
:100730000E949E0385B5886685BD0895683008F0DF
:1007400070C0843008F06DC0813009F1813030F024
:100750008230B1F1833009F064C04BC0413059F4AC
:100760002AB381E090E002C0880F991F6A95E2F7F2
:10077000282B2ABB08952AB381E090E002C0880F9D
:10078000991F6A95E2F7809582238ABB08954130CC
:1007900059F427B381E090E002C0880F991F6A9551
:1007A000E2F7282B27BB089527B381E090E002C031
:1007B000880F991F6A95E2F78095822387BB089579
:1007C000413059F424B381E090E002C0880F991FB2
:1007D0006A95E2F7282B24BB089524B381E090E0CA
:1007E00002C0880F991F6A95E2F78095822384BB27
:1007F0000895413059F421B381E090E002C0880FA0
:10080000991F6A95E2F7282B21BB089521B381E057
:1008100090E002C0880F991F6A95E2F780958223C5
:1008200081BB0895683008F070C0843008F06DC056
:10083000813009F1813030F08230B1F1833009F03C
:1008400064C04BC0413059F42BB381E090E002C04A
:10085000880F991F6A95E2F7282B2BBB08952BB3BD
:1008600081E090E002C0880F991F6A95E2F78095B9
:1008700082238BBB0895413059F428B381E090E086
:1008800002C0880F991F6A95E2F7282B28BB0895AC
:1008900028B381E090E002C0880F991F6A95E2F7C3
:1008A0008095822388BB0895413059F425B381E0B7
:1008B00090E002C0880F991F6A95E2F7282B25BBAC
:1008C000089525B381E090E002C0880F991F6A95D2
:1008D000E2F78095822385BB0895413059F422B315
:1008E00081E090E002C0880F991F6A95E2F7282BFB
:1008F00022BB089522B381E090E002C0880F991FC7
:100900006A95E2F78095822382BB08956830D0F41F
:100910008430C0F4813049F0813028F0823039F0E1
:10092000833081F406C089B305C086B303C083B3A6
:1009300001C080B390E002C0959587956A95E2F773
:100940008170089580E00895843080F4813049F00A
:10095000813028F0823039F0833041F406C06ABB20
:10096000089567BB089564BB089561BB0895843002
:1009700080F4813049F0813028F0823039F08330C2
:1009800041F406C06BBB089568BB089565BB08952C
:1009900062BB0895843088F4813049F0813028F0BA
:1009A000823039F0833049F406C089B3089586B3A4
:1009B000089583B3089580B3089580E00895FF9269
:1009C0000F931F9380E060E040E00E949E0380E070
:1009D00061E040E00E949E0380E062E040E00E940F
:1009E0009E0380E063E040E00E949E0380E064E0BC
:1009F00040E00E949E0380E065E040E00E949E038C
:100A000080E066E040E00E949E0380E067E040E016
:100A10000E949E036CC0F02E80E0602F41E00E9497
:100A20009E0380E0602F40E00E94120410E01C5FF3
:100A300080E0612F0E948604612F6350882309F0B3
:100A400049C08F2D880F880F860F883081F189303B
:100A500080F4843021F1853038F48230D1F0833055
:100A6000E0F4813099F517C08630E9F08730E8F47A
:100A700018C08C3021F18D3028F48A30E1F08B30B1
:100A8000E0F417C08F30F9F08031F9F08E30F1F4D6
:100A900018C088E01BC087E019C089E017C085E254
:100AA00015C084E013C085E011C086E00FC08AE263
:100AB0000DC081E00BC082E009C083E007C08DE279
:100AC00005C080E003C08DE301C08BE21F910F9150
:100AD000FF900895162F643009F0A9CF80E0602FB1
:100AE00040E00E949E030F5F043008F494CF00E0C2
:100AF000FF2492CFFF920F931F93F82E81E061E0C5
:100B000041E00E94120400ED17E0C8010197F1F7DF
:100B100081E062E041E00E941204C8010197F1F710
:100B200082E06F2D0E94B704C8010197F1F781E0C0
:100B300062E040E00E941204C8010197F1F71F91A2
:100B40000F91FF9008951F93CF93DF93EC0110E076
:100B500003C00E947A051F5FFE01E10FF11D808135
:100B60008823B9F7DF91CF911F9108950F931F93B9
:100B7000DF93CF93CDB7DEB760970FB6F894DEBFA3
:100B80000FBECDBF8E010F5F1F4FB8014AE050E08E
:100B90000E94CB06C8010E94A30560960FB6F89488
:100BA000DEBF0FBECDBFCF91DF911F910F91089592
:100BB000FF920F931F93F82E81E061E040E00E94C6
:100BC000120400ED17E0C8010197F1F781E062E03F
:100BD00041E00E941204C8010197F1F782E06F2DF5
:100BE0000E94B704C8010197F1F781E062E040E09C
:100BF0000E941204C8010197F1F71F910F91FF9015
:100C0000089581E00E94D8050895813039F081303F
:100C100050F0823029F0833031F404C0605C03C0AE
:100C2000605F01C0605B862F80680E94D8050895D0
:100C30000F931F938A010E940506C8010E94A30515
:100C40001F910F91089581E061E041E00E949E03B1
:100C500081E060E041E00E949E0381E062E041E0CB
:100C60000E949E0381E060E040E00E94120480E464
:100C70009CE90197F1F782E06FEF0E94A40488E3FA
:100C80000E94D8058CE00E94D80581E00E94D8051A
:100C90000895FC0182E08BB988E18AB910BC80B567
:100CA000806880BD90B580818295807F9F7C892BF4
:100CB00080BD90B58181880F880F880F977F892B21
:100CC00080BD90B58281880F997F892B80BD23815B
:100CD00034814581568183E0220F331F441F551F05
:100CE0008A95D1F760E072E18AE790E00E94A90658
:100CF0002150304030BD29B908955D9BFECF8CB99D
:100D000008955F9BFECF8CB1089520E004C05D9BE9
:100D1000FECFECB92F5FFC01E20FF11DE081EE2365
:100D2000B1F70895DC015F9BFECF8CB18C9390E00E
:100D300008C09F5F5F9BFECF8CB1FD01E90FF11DE5
:100D40008083FD01E90FF11D8081833291F71082CC
:100D50000895A1E21A2EAA1BBB1BFD010DC0AA1FFC
:100D6000BB1FEE1FFF1FA217B307E407F50720F014
:100D7000A21BB30BE40BF50B661F771F881F991F8F
:100D80001A9469F760957095809590959B01AC01D8
:100D9000BD01CF010895FB019F01E8944230C4F0EA
:100DA0004532B4F44A3029F497FB1EF490958195AE
:100DB0009F4F642F77270E94FC06805D8A330CF0DA
:100DC000895D8193CB010097A1F716F45DE2519301
:100DD0001082C9010C94EC06DC01FC01672F7191B3
:100DE0007723E1F7329704C07C916D937083629111
:100DF000AE17BF07C8F30895AA1BBB1B51E107C07C
:100E0000AA1FBB1FA617B70710F0A61BB70B881F9A
:100E1000991F5A95A9F780959095BC01CD01089529
:040E2000F894FFCF74
:100E2400756E6C6F636B696E6720646F6F720064BC
:100E34006F6F72206973206F70656E20006C6F6332
:100E44006B696E6720646F6F7220002B203A204F0D
:100E540070656E20446F6F7220002D203A20436825
:100E6400616E676520506173732000506C7A204571
:100E74006E7465722070617373203A0052452D457B
:100E84006E7465722070617373203A006168203A51
:100E940000506173732069732057726F6E6720214D
:100EA40000010000851E01FF0200000380250000F0
:00000001FF
